:020000040000FA
:100000000C9430010C9461010C9461010C94610119
:100010000C9461010C9461010C9461010C946101D8
:100020000C9461010C9461010C9461010C946101C8
:100030000C9461010C94A4070C9461010C9461016F
:100040000C9461010C94D8080C9461010C9461012A
:100050000C9461010C9461010C9461010C940408EE
:100060000C9461010C9461010C9461010C94610188
:100070000C9461010C9461010C9461010C94610178
:100080000C94AA080C9461010C9461010C94610118
:100090000C9461010C9461010C9461010C94610158
:1000A0000C9461010C9461010C947C080C94610126
:1000B0000C9461010C9461010C9461010C944E0844
:1000C0000C9461010C9461010C9461010C94610128
:1000D0000C9461010C9461010C9461010C94610118
:1000E0000C9461010C944F020C943C020C94C20CD1
:1000F0000C9457020C94D7050C94D6050C94650209
:100100000C942A020C9461020C9434020C9449025F
:100110000C9438020C943F020C9430020C9445026B
:100120000C9453020C946F020C946B020C94EE0628
:100130000C94DF010C946A020C945D020000210013
:10014000240027002A002D003000330001010000A8
:10015000040107010A0100000A0B02090C0D0E0838
:100160000703040100000000000000000000000080
:10017000000000000000000000000000000000007F
:10018000000012111000000000000000000000003C
:10019000000000000000000000000000000020003F
:1001A0002300260029002C002F003200000100004F
:1001B0000301060109010102102020080810204057
:1001C000102040800201020108040201010204081B
:1001D00010204080804020100804020180040201A9
:1001E00080402010080402010804020101020408F2
:1001F00010204080010204081020408000002200EE
:10020000250028002B002E003100340002010000E0
:10021000050108010B010505050507050808080883
:10022000020202020A0A080804040404010101018E
:100230000101010103030303030303030407070789
:100240000C0C0C0C0C0C0C0C02020202060606062E
:10025000060606060B0B0B0B0B0B0B0B0200C20C5E
:1002600011241FBECFEFD1E2DEBFCDBF00E00CBF37
:1002700012E0A0E0B2E0EAECFDE100E00BBF02C05A
:1002800007900D92A83CB107D9F723E0A8ECB2E0A3
:1002900001C01D92A53CB207E1F711E0C0E3D1E037
:1002A00000E006C021970109802FFE010E94DB0EAD
:1002B000CF32D10780E00807A9F70E944B090C94C0
:1002C000E30E0C940000CF92DF92EF92FF92DC01DC
:1002D000A03282E0B807D4F5A53BB10514F0A4EB39
:1002E000B0E040918B0328E830E0241B310947FD42
:1002F0003395220F331F220F331F6901330FEE088E
:10030000FF0840918C0328E532E0241B310947FDAA
:100310003395220F331F220F331F032E000C440B83
:10032000550B2C193D094E095F09B7FF02C0B0E01B
:10033000A0E00E94650D24EB30E040E050E00E9418
:100340003B0DC20ED31EE41EF51ED601E0918A03BA
:10035000E03380F520918B0388E890E0821B9109BF
:1003600027FD9395880F991F880F991FA817B90724
:1003700084F020918C0388E592E0821B910927FD8F
:100380009395880F991F880F991FA817B9070CF428
:10039000CD010297880F991F4FB7F8942E2F30E0A8
:1003A000F901EE0FFF1FE20FF31FE650FD4F92839E
:1003B00081834FBFFF90EF90DF90CF900895AF9271
:1003C000BF92CF92DF92EF92FF920F931F93CF9342
:1003D000DF936C017B018B01040F151FEB015E01A4
:1003E000AE18BF08C017D10759F06991D601ED9139
:1003F000FC910190F081E02DC6011995892B79F7C8
:10040000C501DF91CF911F910F91FF90EF90DF9089
:10041000CF90BF90AF9008958150823108F05AC0BC
:10042000E82FF0E08827E85EFD4F8F4F0C94DB0E3D
:1004300038023C022A02300234026A023F024502BC
:1004400049024F02530257025D0261026A026502CD
:100450006B026F02809180008F77809380000895F7
:10046000809180008F7DF9CF80918000877FF5CFCC
:1004700084B58F7784BD089584B58F7DFBCF80913F
:10048000B0008F778093B00008958091B0008F7D89
:10049000F9CF809190008F7780939000089580919C
:1004A00090008F7DF9CF80919000877FF5CF80916C
:1004B000A0008F778093A00008958091A0008F7D89
:1004C000F9CF8091A000877FF5CF809120018F77B1
:1004D000809320010895809120018F7DF9CF809134
:1004E0002001877FF5CF1F93CF93DF93282F30E034
:1004F000F901EA5AFE4F8491F901EA54FE4FD49172
:10050000F901EA5EFD4FC491CC23A9F0162F8111A9
:100510000E940C02EC2FF0E0EE0FFF1FE450FE4FA4
:10052000A591B4918FB7F894EC91111108C0D095B2
:10053000DE23DC938FBFDF91CF911F910895DE2BD7
:10054000F8CF9091000289130DC0ECE5F2E0E49140
:100550009FEF90930002E230E1F038F4EE2381F057
:10056000E13089F060E00C947302E43049F110F15D
:10057000E530C1F7909173009D7F90937300F2CFA7
:1005800010926E00EFCF90916F009D7F90936F005F
:10059000E9CF909170009D7F9093700091E09093CF
:1005A000B0009091B100987F94609093B100109248
:1005B000B300D8CF909171009D7F90937100D2CFFE
:1005C000909172009D7F90937200CCCFCF93DF9378
:1005D00090E0FC01EA54FE4F24918A5E9D4FFC019D
:1005E00084918823D1F090E0880F991FFC01E45C8E
:1005F000FE4FA591B491FC01E450FE4FC591D491FA
:1006000061110EC09FB7F8948C91E22FE0958E2374
:100610008C932881E223E8839FBFDF91CF910895D7
:100620008FB7F894EC91E22BEC938FBFF6CFCF937A
:1006300080910002883121F08F3F59F1CF910895C8
:10064000ECE5F2E0C491C7FDF9CF61E088E10E94DA
:10065000E602CC2309F4F0C0C23009F004C1809155
:10066000B100887F83608093B10089EF8093B300ED
:100670008FEF9FEFDC018093B9039093BA03A093AF
:10068000BB03B093BC0380917000826080937000C4
:10069000D5CF88E180930002ECE5F2E0C4918C2F85
:1006A000CF3F61F2C23009F468C060F4CC2379F125
:1006B000C13009F444C087FDC1CF61E088E10E94E8
:1006C000E602CACFC43009F499C008F478C0C53036
:1006D00091F71092200110922101809121018860F0
:1006E0008093210180912101816080932101EEE2BC
:1006F000F2E0E491F0E0EE0FFF1FE450FE4F859131
:100700009491EEECF1E0E491E093A5039ECF14BC4C
:1007100015BC84B5826084BD85B5816085BDEEE27F
:10072000F2E0E491F0E0EE0FFF1FE450FE4F859100
:100730009491EEECF1E0E491E093AC0386CF10925B
:1007400080001092810080918100886080938100F8
:1007500080918100816080938100EEE2F2E0E4917B
:10076000F0E0EE0FFF1FE450FE4F85919491EEEC08
:10077000F1E0E491E093AB0368CF1092B0001092E7
:10078000B1008091B00082608093B0008091B10090
:1007900081608093B100EEE2F2E0E491F0E0EE0FD0
:1007A000FF1FE450FE4F859194919093AA0380938C
:1007B000A903EEECF1E0E491E093A80346CF109298
:1007C0009000109291008091910088608093910038
:1007D00080919100816080939100EEE2F2E0E491DB
:1007E000F0E0EE0FFF1FE450FE4F85919491EEEC88
:1007F000F1E0E491E093A703C3E027CF1092A000BB
:100800001092A1008091A10088608093A100809146
:10081000A10081608093A100EEE2F2E0E491F0E0BB
:10082000EE0FFF1FE450FE4F85919491EEECF1E046
:10083000E491E093A60309CF85B5887F836085BDE9
:100840008CE787BD8FEF9FEFDC018093C10390930E
:10085000C203A093C303B093C40380916E0082606F
:1008600080936E00EBCEC130E9F480918100887FE7
:100870008160809381008FE39FE190938900809352
:1008800088008FEF9FEFDC018093BD039093BE0340
:10089000A093BF03B093C00380916F0082608093E8
:1008A0006F00CCCEC330E9F480919100887F8160E5
:1008B000809391008FE39FE190939900809398003B
:1008C0008FEF9FEFDC018093B5039093B603A09365
:1008D000B703B093B8038091710082608093710078
:1008E000ADCEC430E9F48091A100887F816080930F
:1008F000A1008FE39FE19093A9008093A8008FEF60
:100900009FEFDC018093B1039093B203A093B303F4
:10091000B093B403809172008260809372008ECE97
:10092000C530E9F480912101887F816080932101A5
:100930008FE39FE190932901809328018FEF9FEF30
:10094000DC018093AD039093AE03A093AF03B0930B
:10095000B003809173008260809373006FCEC230C9
:1009600091F034F4CC2369F0C13009F067CE83CF25
:10097000C43009F4BECF0CF49DCFC53009F05ECE73
:10098000D7CF8FE35ECF8FE371CE3FB7F8948091DE
:10099000D2029091D302A091D402B091D50226B593
:1009A000A89B05C02F3F19F00196A11DB11D3FBFA7
:1009B000BA2FA92F982F8827BC01CD01620F711D76
:1009C000811D911D42E0660F771F881F991F4A9570
:1009D000D1F708958F929F92AF92BF92CF92DF92FC
:1009E000EF92FF924B015C010E94C5046B017C01F8
:1009F0000E94C5046C197D098E099F09683E7340E9
:100A000081059105A8F321E0821A9108A108B10897
:100A100088EEC80E83E0D81EE11CF11C81149104FD
:100A2000A104B10429F7FF90EF90DF90CF90BF9021
:100A3000AF909F908F900895AF92BF92CF92DF9228
:100A4000EF92FF920F931F93CF93DF936B017A0185
:100A5000EC01C753DD4F28813CE0389F8001399F6E
:100A6000100D1124A090C802B12C27FF1FC0FB015C
:100A70001182108288818F5F888388819801280F76
:100A8000311D87FD3A95F6012A153B051CF4888136
:100A90008C30C4F180819181049680349C4908F4A3
:100AA00073C0F60180819181049670C0888198019D
:100AB000280F311D87FD3A952A153B05DCF6888104
:100AC000A801480F511D87FD5A95FA01EE0FFF1F2F
:100AD000E40FF51FE650FD4F808186FFCBCF888164
:100AE000F801E80FF11D87FDFA95CF01EE0FFF1F0A
:100AF000E80FF91FE650FD4F808160E08F730E9480
:100B00007302B8CF808191812881A801420F511DC5
:100B100027FD5A959A01FA01EE0FFF1FE20FF31F0E
:100B2000E650FD4F21813281820F931FF70191839F
:100B3000808388819801280F311D87FD3A95F9013E
:100B4000EE0FFF1FE20FF31FE650FD4F808186FF7F
:100B500022C08881080F111D87FD1A95F801EE0F3C
:100B6000FF1FE00FF11FE650FD4F808161E08F73A2
:100B7000DF91CF911F910F91FF90EF90DF90CF9079
:100B8000BF90AF900C94730280E49CE9F7019183CD
:100B900080838FEF8883DF91CF911F910F91FF901A
:100BA000EF90DF90CF90BF90AF900895089590E0C0
:100BB00080E008958F929F92AF92BF920F931F9300
:100BC000CF93DF93CDB7DEB7A1970FB6F894DEBF12
:100BD0000FBECDBF19A2423008F44AE08E010F5D6E
:100BE0001F4F842E912CB12CA12CA50194010E94A1
:100BF0006D0DE62FB901CA01EA3044F5E05DD80178
:100C0000EE938D01232B242B252B79F790E080E0A8
:100C1000109769F0FD0101900020E9F73197AF01CD
:100C20004A1B5B0BBD018DE893E00E94DF01A1969A
:100C30000FB6F894DEBF0FBECDBFDF91CF911F91ED
:100C40000F91BF90AF909F908F900895E95CD7CFA0
:100C5000FB0101900020E9F73197AF01461B570BCC
:100C60000C94DF010F931F9390E0FC01EA54FE4FB8
:100C70006491FC01EA5EFD4FE491F0E0EE0FFF1F8E
:100C8000E456FE4F8591949100E412E42FE030E0A9
:100C9000462F0E940609611571058105910529F00D
:100CA0006F5F7F4F8F4F9F4F9F701F910F910895E0
:100CB000CF93DF93EC0160E08E810E94730261E0CC
:100CC0008E810E94730260E08E810E9473028BE825
:100CD00091E00197F1F7DF91CF910895CF92DF92E4
:100CE000EF92FF920F931F93CF93DF936C017C01E0
:100CF00087E0E80EF11CD0E0C0E0062F10E0B8015C
:100D00000C2E02C0759567950A94E2F76170F701A1
:100D100081917F010E9473022196C430D10579F739
:100D2000C601DF91CF911F910F91FF90EF90DF905F
:100D3000CF900C945806CF92DF92EF92FF920F93D0
:100D40001F93CF93DF93EC01F62E642F8C810E94CA
:100D500073028D818F3F19F060E00E9473020F2DA6
:100D600010E08F8584FF25C06E0187E0C80ED11C7E
:100D7000F12CE12CB8010E2C02C0759567950A94F0
:100D8000E2F76170F60181916F010E947302FFEF3B
:100D9000EF1AFF0A88E0E816F10461F7CE01DF914F
:100DA000CF911F910F91FF90EF90DF90CF900C9417
:100DB0005806B80184E0759567958A95E1F7CE01EC
:100DC0000E946E066F2DCE01DF91CF911F910F9182
:100DD000FF90EF90DF90CF900C946E0641E00E9460
:100DE0009B0681E090E0089540E00C949B06FC0196
:100DF0002389421710F04FEF420FFC01E40FF11D61
:100E00002489620F60680C94F40661E00E94F40685
:100E10008BE39FE10197F1F708950F931F93CF9311
:100E2000DF93EC01623019F48F8588608F876B8BBC
:100E30001C8A80E48D8B80E18E8B80E58F8B61E056
:100E40008C810E94E6028D818F3F19F061E00E9443
:100E5000E60261E08E810E94E6028E0198012C1B61
:100E60003D0B8F8584FD0DC084E090E00F5F1F4F28
:100E7000281739074CF461E0F80186810E94E602E8
:100E8000EDCF88E090E0F2CF8BE39DE00197F1F7A2
:100E900060E08C810E94730260E08E810E94730288
:100EA0008D818F3F19F060E00E9473026F8564FDB1
:100EB00034C063E0CE010E946E060BE416E4C80164
:100EC0000197F1F763E0CE010E946E06C801019719
:100ED000F1F763E0CE010E946E0683E592E0019790
:100EE000F1F762E0CE010E946E066F856062CE016E
:100EF0000E94F40684E0888B6CE0CE010E94F40628
:100F0000CE010E94050782E0898B66E0CE01DF9169
:100F1000CF911F910F910C94F4066062CE010E9454
:100F2000F4068BE496E40197F1F76F856062CE01D9
:100F30000E94F40683E592E00197F1F76F85606205
:100F4000CE010E94F406D1CF1F920F920FB60F92DE
:100F500011240BB60F922F933F934F935F936F9390
:100F60007F938F939F93AF93BF93EF93FF93809162
:100F7000B9039091BA03A091BB03B091BC03892B34
:100F80008A2B8B2BE1F19091A803E091A903F091BA
:100F9000AA038081892780838091B9039091BA0345
:100FA000A091BB03B091BC03181619061A061B06C4
:100FB0009CF48091B9039091BA03A091BB03B091C6
:100FC000BC030197A109B1098093B9039093BA03B7
:100FD000A093BB03B093BC03FF91EF91BF91AF917E
:100FE0009F918F917F916F915F914F913F912F9141
:100FF0000F900BBE0F900FBE0F901F901895809111
:1010000000020E94A102E8CF1F920F920FB60F922A
:1010100011242F933F938F939F93AF93BF9380910E
:10102000CE029091CF02A091D002B091D102309126
:10103000CD0223E0230F2D3758F50196A11DB11DD8
:101040002093CD028093CE029093CF02A093D00242
:10105000B093D1028091D2029091D302A091D40298
:10106000B091D5020196A11DB11D8093D20290933B
:10107000D302A093D402B093D502BF91AF919F91B8
:101080008F913F912F910F900FBE0F901F90189549
:1010900026E8230F0296A11DB11DD2CF1F920F92F9
:1010A0000FB60F9211240BB60F922F933F934F93CD
:1010B0005F936F937F938F939F93AF93BF93EF93C0
:1010C000FF9348E251E064E271E090E080E00E942A
:1010D0001C05FF91EF91BF91AF919F918F917F91EF
:1010E0006F915F914F913F912F910F900BBE0F9099
:1010F0000FBE0F901F9018951F920F920FB60F9270
:1011000011240BB60F922F933F934F935F936F93DE
:101110007F938F939F93AF93BF93EF93FF9348EA8F
:1011200050E064EA70E083E090E00E941C05FF91CB
:10113000EF91BF91AF919F918F917F916F915F914F
:101140004F913F912F910F900BBE0F900FBE0F90BC
:101150001F9018951F920F920FB60F9211240BB685
:101160000F922F933F934F935F936F937F938F9340
:101170009F93AF93BF93EF93FF9348E950E064E9E7
:1011800070E082E090E00E941C05FF91EF91BF911A
:10119000AF919F918F917F916F915F914F913F910F
:1011A0002F910F900BBE0F900FBE0F901F901895B0
:1011B0001F920F920FB60F9211240BB60F922F931E
:1011C0003F934F935F936F937F938F939F93AF93CF
:1011D000BF93EF93FF9348E850E064E870E081E04C
:1011E00090E00E941C05FF91EF91BF91AF919F91FC
:1011F0008F917F916F915F914F913F912F910F90C0
:101200000BBE0F900FBE0F901F901895CF92DF92DC
:10121000EF92FF920F931F93E82FF92F05C0015013
:1012200011092109310961F1908196239417B9F3CD
:1012300005C0015011092109310911F1908196234E
:101240009413F7CFC12CD12CE12CF12C0AC08FEFD5
:10125000C81AD80AE80AF80A0C151D052E053F051C
:1012600079F080818623841791F36C2D7D2D8E2D4E
:101270009F2D1F910F91FF90EF90DF90CF900895D9
:1012800060E070E080E090E01F910F91FF90EF90A0
:10129000DF90CF900895789484B5826084BD84B542
:1012A000816084BD85B5826085BD85B5816085BD61
:1012B00080916E00816080936E0010928100809119
:1012C00081008260809381008091810081608093A1
:1012D0008100809180008160809380008091B100C6
:1012E00084608093B1008091B00081608093B000F1
:1012F0008091910082608093910080919100816043
:101300008093910080919000816080939000809103
:10131000A10082608093A1008091A10081608093F0
:10132000A1008091A00081608093A00080912101A4
:10133000826080932101809121018160809321014D
:101340008091200181608093200180917A008460E7
:1013500080937A0080917A00826080937A008091F5
:101360007A00816080937A0080917A00806880930F
:101370007A001092C10062E08CED92E00E940D07AD
:1013800040E060E08CED92E00E94F7066DE072E0D4
:101390008CED92E00E94280641E060E08CED92E046
:1013A0000E94F7066DE172E08CED92E00E94280643
:1013B00062E08DE893E00E940D0740E060E08DE878
:1013C00093E00E94F7066EE272E08DE893E00E94DF
:1013D000280641E060E08DE893E00E94F70664E4AF
:1013E00072E08DE893E00E94280680918A038033A2
:1013F00008F052C061E084E00E94E60280918A0316
:10140000282F30E0F901EE0FFF1FE20FF31FE65027
:10141000FD4F9081907C9460908310928B0310928A
:101420008C032CE0622F0E94CF0E829FB00111240A
:1014300030E020E0AB01420F531FFA01EE0FFF1F17
:10144000E40FF51FE650FD4F908196FD17C02F5F0A
:101450003F4F2C30310571F7813009F094C1109263
:10146000800082E0809381001092850010928400B9
:10147000B19A80916F00826080936F00E0918A033F
:101480008E2F90E0FC01EE0FFF1FE80FF91FE650D2
:10149000FD4F80818064808361E087E00E94E602E6
:1014A00060E086E00E94E60261E086E10E94E602DA
:1014B00060E087E10E94E60260E083E00E94E602CD
:1014C00061E085E00E94E60261E082E00E94E602BF
:1014D00061E083E30E94E60261E084E30E94E602A9
:1014E00061E085E30E94E60261E088E10E94E60295
:1014F000CFE0D0E003E210E022E0422E512C612C3C
:10150000712C3AE5232E312C90E0892E90E0992E13
:1015100060E087E00E947302CE010197F1F761E07D
:1015200087E00E947302C8010197F1F760E087E04D
:101530000E94730286E00E943206A30192010E947B
:101540003B0DCA01B9010E94D60D22E533EB47E0FD
:101550005DE30E943A0E0E949E0D7093F902609323
:10156000F802E9E5F1E08491E9EBF1E0F490E9E1DA
:10157000F2E0E490EE2009F432C181110E940C02E5
:10158000EE2DF0E0EE0FFF1FE456FE4FA591B49153
:101590008C91F82291E080E009F490E09093F602BB
:1015A0008093F70260E086E10E947302CE0101970A
:1015B000F1F761E086E10E947302C8010197F1F73B
:1015C00060E086E10E94730287E10E943206A30177
:1015D00092010E943B0DCA01B9010E94D60D22E57D
:1015E00033EB47E05DE30E943A0E0E949E0D6B01D3
:1015F0005B017093F5026093F4026F3171050CF496
:10160000FCC0CB014F978634910560F460E083E322
:101610000E94730260E084E30E94730261E085E34C
:101620000E94730285E6C81AD10894E6C916D1044F
:1016300060F460E083E30E94730261E084E30E944F
:10164000730261E085E30E947302E8ECAE16B10418
:1016500064F061E083E30E94730261E084E30E942E
:10166000730261E085E30E9473028091F802909119
:10167000F90202970D9708F0B5C08CED92E00E9438
:10168000050740E061E08CED92E00E94F70666E419
:1016900072E08CED92E00E94280641E060E08CED63
:1016A00092E00E94F70665E572E08CED92E00E9400
:1016B000280661E085E00E94730261E082E00E94FA
:1016C000730281E090E09093DB028093DA0268EE8F
:1016D00073E080E090E00E94EA048CED92E00E94CA
:1016E000050766E672E08CED92E00E94280688E12C
:1016F0000E94A1028091DA029091DB028130910573
:1017000009F01FC18091F6029091F702892B09F030
:1017100011C18CED92E00E94050740E061E08CED84
:1017200092E00E94F70669E872E08CED92E00E9478
:10173000280641E061E08CED92E00E94F70667E93F
:1017400072E08CED92E00E9428061092D90210926D
:10175000D802E090D802F090D9029BE5E916F10496
:101760000CF06EC0C7010E94630164E170E080E08C
:1017700090E00E94EA04EFEFEE1AFE0AF092D9021E
:10178000E092D802E6CF823061F41092900080930C
:101790009100109295001092940088BB8093710084
:1017A0006DCE833069F41092A00082E08093A10096
:1017B0001092A5001092A40089BB809372005ECEA7
:1017C00081115CCE1092200182E080932101109261
:1017D0002501109224018ABB809373004FCE90E0C4
:1017E00080E0DCCE60E085E00E94730260E082E091
:1017F0000E9473020E9417037DCF60E085E00E9483
:10180000730260E082E00E9473021092DB02109289
:10181000DA028CED92E00E94050760E083E30E940B
:10182000730260E084E30E94730260E085E30E943B
:10183000730267E772E08CED92E00E9428065ACFAF
:1018400060E177E280E090E00E94EA043092D90201
:101850002092D802E090D802F090D902F7FC11C093
:10186000C7010E94630164E170E080E090E00E94A3
:10187000EA04F1E0EF1AF108F092D902E092D802FE
:10188000E9CF8091D6029091D70201969093D7022A
:101890008093D6028DE893E00E94050740E061E066
:1018A0008DE893E00E94F70667EA72E08DE893E026
:1018B0000E94280641E061E08DE893E00E94F7066F
:1018C000C090D602D090D7020D2C000CEE08FF0875
:1018D0004AE0C701B601F7FE0EC041E06DE28DE8B7
:1018E00093E00E949B0666277727CB016C197D0940
:1018F0008E099F094AE00E94DA058CED92E00E9471
:1019000005076DE072E08CED92E00E94280641E050
:1019100060E08CED92E00E94F7066DE172E08CEDE4
:1019200092E00E9428061092DB021092DA0288E10F
:101930000E94A1028114910409F4EACD0E940000E2
:10194000E3CD892BB9F78091F6029091F702892BAC
:1019500089F78CED92E00E9405076DE072E08CED56
:1019600092E00E94280641E060E08CED92E00E9447
:10197000F70667EB72E08CED92E00E9428060E9469
:101980001703D8CF0F931F93CF931092DF021092BB
:10199000DE0205E012E01093DD020093DC028DE030
:1019A0008093E002CFEFC093E1028CE08093E202EB
:1019B0008BE08093E3028AE08093E40289E08093E5
:1019C000E50288E08093E6021092E7021092E802B6
:1019D0001092E9021092EA021092EB0261E08CEDA3
:1019E00092E00E940D071092900310928F031093C3
:1019F0008E0300938D038EE180939103C093920335
:101A00008DE1809393038CE1809394038BE1809329
:101A100095038AE18093960389E18093970310925E
:101A200098031092990310929A0310929B031092BC
:101A30009C0361E08DE893E00E940D078091C8024D
:101A40008033B0F491E0980F9093C80280938A039A
:101A500090E0FC01EE0FFF1FE80FF91FE650FD4F6D
:101A600088EB9BE092838183CF911F910F91089522
:101A7000C0938A03F9CF052E97FB1EF400940E94B1
:101A8000520D57FD07D00E946D0D07FC03D04EF498
:101A90000C94520D50954095309521953F4F4F4FE6
:101AA0005F4F089590958095709561957F4F8F4F0A
:101AB0009F4F08950E948F0DA59F900DB49F900D8C
:101AC000A49F800D911D11240895B7FF0C945A0D09
:101AD0000E945A0D821B930B0895A1E21A2EAA1B95
:101AE000BB1BFD010DC0AA1FBB1FEE1FFF1FA217CE
:101AF000B307E407F50720F0A21BB30BE40BF50BCB
:101B0000661F771F881F991F1A9469F76095709553
:101B1000809590959B01AC01BD01CF010895A29FD6
:101B2000B001B39FC001A39F700D811D1124911DB1
:101B3000B29F700D811D1124911D08950E94A50D65
:101B40006894B1110C94340E08950E94190E88F017
:101B50009F5798F0B92F9927B751B0F0E1F0660F71
:101B6000771F881F991F1AF0BA95C9F714C0B130B2
:101B700091F00E94330EB1E008950C94330E672F5C
:101B8000782F8827B85F39F0B93FCCF386957795E1
:101B90006795B395D9F73EF49095809570956195CA
:101BA0007F4F8F4F9F4F0895E89409C097FB3EF4F5
:101BB00090958095709561957F4F8F4F9F4F99239A
:101BC000A9F0F92F96E9BB279395F6958795779518
:101BD0006795B795F111F8CFFAF4BB0F11F460FFD8
:101BE0001BC06F5F7F4F8F4F9F4F16C0882311F030
:101BF00096E911C0772321F09EE8872F762F05C044
:101C0000662371F096E8862F70E060E02AF09A95DE
:101C1000660F771F881FDAF7880F9695879597F9D3
:101C2000089557FD9058440F551F59F05F3F71F0CC
:101C30004795880F97FB991F61F09F3F79F0879533
:101C40000895121613061406551FF2CF4695F1DFBC
:101C500008C0161617061806991FF1CF869571054C
:101C6000610508940895E894BB2766277727CB0180
:101C700097F908950E944D0E0C94BE0E0E94B00E6E
:101C800038F00E94B70E20F0952311F00C94A70EA7
:101C90000C94AD0E11240C94340E0E94110E70F3AE
:101CA000959FC1F3950F50E0551F629FF001729F01
:101CB000BB27F00DB11D639FAA27F00DB11DAA1F10
:101CC000649F6627B00DA11D661F829F2227B00D5D
:101CD000A11D621F739FB00DA11D621F839FA00DE8
:101CE000611D221F749F3327A00D611D231F849F38
:101CF000600D211D822F762F6A2F11249F5750408F
:101D00009AF0F1F088234AF0EE0FFF1FBB1F661F09
:101D1000771F881F91505040A9F79E3F510580F0D2
:101D20000C94A70E0C94340E5F3FE4F3983ED4F36A
:101D3000869577956795B795F795E7959F5FC1F776
:101D4000FE2B880F911D9695879597F9089597F921
:101D50009F6780E870E060E008959FEF80EC089551
:101D600000240A941616170618060906089500247A
:101D70000A9412161306140605060895092E0394F4
:101D8000000C11F4882352F0BB0F40F4BF2B11F468
:101D900060FF04C06F5F7F4F8F4F9F4F0895991B67
:101DA00079E004C0991F961708F0961B881F7A9552
:101DB000C9F780950895EE0FFF1F881F8BBF07900E
:101DC000F691E02D1994F894FFCFFF00000000EE8B
:101DD00006DF01D705D6055761736820796F7572E4
:101DE0002068616E6473006265666F726520796F4A
:101DF0007520656E746572004E6F2E206F662070C0
:101E0000656F706C6520656E746572656400300086
:101E100048616E647320646574656374656400571B
:101E20006173682068616E6473202D203230730006
:101E3000596F75206172652073616665206E6F77DA
:101E40000053616E6974697A65722046696E7368C1
:101E5000656400596F75206D617920676F20696E28
:101E6000003130207365636F6E6473206C65667437
:101E7000004E6F2E206F662070656F706C65203A83
:101E800000746F206772616E7420616363657373A1
:021E9000000050
:020000040003F7
:10E000000D9489F10D94B2F10D94B2F10D94B2F129
:10E010000D94B2F10D94B2F10D94B2F10D94B2F1F0
:10E020000D94B2F10D94B2F10D94B2F10D94B2F1E0
:10E030000D94B2F10D94B2F10D94B2F10D94B2F1D0
:10E040000D94B2F10D94B2F10D94B2F10D94B2F1C0
:10E050000D94B2F10D94B2F10D94B2F10D94B2F1B0
:10E060000D94B2F10D94B2F10D94B2F10D94B2F1A0
:10E070000D94B2F10D94B2F10D94B2F10D94B2F190
:10E080000D94B2F10D94B2F10D94B2F10D94B2F180
:10E090000D94B2F10D94B2F10D94B2F10D94B2F170
:10E0A0000D94B2F10D94B2F10D94B2F10D94B2F160
:10E0B0000D94B2F10D94B2F10D94B2F10D94B2F150
:10E0C0000D94B2F10D94B2F10D94B2F10D94B2F140
:10E0D0000D94B2F10D94B2F10D94B2F10D94B2F130
:10E0E0000D94B2F141546D656761323536300041AF
:10E0F000726475696E6F206578706C6F72657220DE
:10E1000073746B3530305632206279204D4C530099
:10E11000426F6F746C6F616465723E004875683F52
:10E1200000436F6D70696C6564206F6E203D200048
:10E130004350552054797065202020203D20005FF9
:10E140005F4156525F415243485F5F3D2000415658
:10E1500052204C696243205665723D20004743437C
:10E160002056657273696F6E203D20004350552024
:10E1700049442020202020203D20004C6F7720663D
:10E18000757365202020203D20004869676820665F
:10E190007573652020203D200045787420667573D6
:10E1A00065202020203D20004C6F636B2066757336
:10E1B000652020203D20004D617220203720323024
:10E1C000313300312E362E3800342E332E350056A2
:10E1D00023202020414444522020206F7020636F70
:10E1E00064652020202020696E73747275637469E1
:10E1F0006F6E2061646472202020496E74657272B3
:10E20000757074006E6F20766563746F7200726A49
:10E210006D702020006A6D70200057686174207056
:10E220006F72743A00506F7274206E6F7420737541
:10E2300070706F72746564004D7573742062652030
:10E2400061206C6574746572002000577269747483
:10E25000696E672045450052656164696E672045B7
:10E26000450045452065727220636E743D00504F35
:10E27000525400303D5A65726F2061646472003FF1
:10E280003D43505520737461747300403D454550C3
:10E29000524F4D207465737400423D426C696E6B41
:10E2A000204C454400453D44756D70204545505215
:10E2B0004F4D00463D44756D7020464C415348001B
:10E2C000483D48656C70004C3D4C69737420492F83
:10E2D0004F20506F72747300513D51756974005234
:10E2E0003D44756D702052414D00563D73686F7707
:10E2F00020696E7465727275707420566563746FF0
:10E30000727300593D506F727420626C696E6B00BD
:10E310002A0011241FBECFEFD1E2DEBFCDBF01E046
:10E320000CBF12E0A0E0B2E0EEE1FDEF03E00BBFB6
:10E3300002C007900D92A030B107D9F712E0A0E01B
:10E34000B2E001C01D92AE30B107E1F70F9460F367
:10E350000D948DFE01E20EBF0FEF0DBF11241FBE05
:10E360000D9460F30D9400F020E030E040ED57E0B4
:10E3700005C0FA013197F1F72F5F3F4F2817390792
:10E38000C0F308959C01260F311DC901A0E0B0E043
:10E390002F5F3F4FABBFFC018791882361F08093D3
:10E3A000C6008091C00086FFFCCF8091C0008064D1
:10E3B0008093C000EACF08958DE08093C6008091DD
:10E3C000C00086FFFCCF8091C00080648093C000B5
:10E3D0008AE08093C6008091C00086FFFCCF8091C8
:10E3E000C00080648093C00008950F94C2F10F9420
:10E3F000DCF10895FC019081992359F09093C600B7
:10E400008091C00086FFFCCF8091C0008064809323
:10E41000C0003196992379F70895282F982F929567
:10E420009F70892F805D8A3308F0895F8093C600D2
:10E430008091C00086FFFCCF8091C00080648093F3
:10E44000C000822F8F70982F905D9A3308F0995FEB
:10E450009093C6008091C00086FFFCCF8091C000E1
:10E4600080648093C00008959C01FB01853691056E
:10E470001CF46330710594F0C90164E670E00F94F8
:10E480002EFE605D7F4F6093C6008091C00086FFC6
:10E49000FCCF8091C00080648093C0002B30310598
:10E4A00014F43297B4F0C90164E670E00F942EFEC4
:10E4B0006AE070E00F942EFE605D7F4F6093C600AF
:10E4C0008091C00086FFFCCF8091C0008064809363
:10E4D000C000C9016AE070E00F942EFEC0968093E0
:10E4E000C6008091C00086FFFCCF8091C000806490
:10E4F0008093C00008951F93182F8EE692EE60E07F
:10E500000F94C2F11093C6008091C00086FFFCCF2B
:10E510008091C00080648093C0000F94DCF11F9153
:10E5200008952F923F924F925F926F927F928F92B7
:10E530009F92AF92BF92CF92DF92EF92FF920F9392
:10E540001F93DF93CF93CDB7DEB762970FB6F894E2
:10E55000DEBF0FBECDBF382E622ECA01DB015C01CB
:10E560006D01772420E2222E2E010894411C511CBB
:10E570008BC081E0A81680E0B80681E0C80680E084
:10E58000D80628F0C601AA27BB270F940DF2BB2797
:10E59000AD2D9C2D8B2D0F940DF28A2D0F940DF225
:10E5A0002092C6008091C00086FFFCCF8091C00001
:10E5B00080648093C0009DE29093C6008091C0006B
:10E5C00086FFFCCF8091C00080648093C0002092C1
:10E5D000C6008091C00086FFFCCF8091C00080649F
:10E5E0008093C00019828601750188249924A1E0D6
:10E5F0003A1651F03A1620F0B2E03B1661F409C029
:10E600000BBFF701779007C0C7010F9477FE782EF4
:10E6100002C0F7017080872D0F940DF22092C60082
:10E620008091C00086FFFCCF8091C0008064809301
:10E63000C000872D8052F401EF70F0708F3520F408
:10E64000E40DF51D708204C0E40DF51D8EE280839B
:10E650000894E11CF11C011D111D0894811C911CE2
:10E6600090E18916910409F0C2CF80E190E0A0E02A
:10E67000B0E0A80EB91ECA1EDB1E198AC2010F9493
:10E68000FAF10F94DCF16A94662009F072CF629679
:10E690000FB6F894DEBF0FBECDBFCF91DF911F91B3
:10E6A0000F91FF90EF90DF90CF90BF90AF909F9031
:10E6B0008F907F906F905F904F903F902F90089534
:10E6C0002F923F924F925F926F927F928F929F9282
:10E6D000AF92BF92CF92DF92EF92FF920F931F9370
:10E6E000DF93CF93CDB7DEB7CD53D1400FB6F894BB
:10E6F000DEBF0FBECDBF01E20EBF0FEF0DBF94B75F
:10E70000F894A89514BE80916000886180936000A1
:10E7100010926000789493FF05C0E0910002F091A0
:10E7200001021995279A2F9A8091C00082608093E8
:10E73000C00080E18093C40088E18093C1000000A4
:10E74000EE24FF24870144E0A42EB12CCC24DD2448
:10E7500024C0C5010197F1F70894E11CF11C011DCB
:10E76000111D21E2E2162EE4F20620E0020720E06D
:10E77000120718F031E0C32ED12CC801B70127ECE5
:10E780003BE140E050E00F9441FE611571058105C9
:10E79000910519F485B1805885B98091C00087FD35
:10E7A00003C0C114D104A9F2A6014F5F5F4FC25E3E
:10E7B000DE4F59834883CE51D140C25EDE4F8881FF
:10E7C0009981CE51D140019711F00D9410FEC05D9A
:10E7D000DE4F19821882C053D14060E0C15DDE4F28
:10E7E0001882CF52D14088249924C35DDE4F19820C
:10E7F0001882CD52D140C05EDE4F188219821A8233
:10E800001B82C052D140CE5CDE4F188219821A8220
:10E810001B82C253D140EE24FF2487010BBFF701B6
:10E8200007911691C45CDE4F19830883CC53D14005
:10E830000D940BFEC25EDE4F28813981CE51D1404E
:10E840002130310509F52091C600C25EDE4F1982E4
:10E850001882CE51D14022C02F5F3F4F4F4F5F4FA4
:10E86000213082E138078AE7480780E0580780F0C6
:10E87000C45CDE4FE881F981CC53D140EF5FFF4F9C
:10E8800019F0EE27FF27099420E030E040E050E047
:10E890008091C00087FFE0CF2091C600C35DDE4FAE
:10E8A00048815981CD52D1404F5F5F4FC35DDE4FEC
:10E8B00059834883CD52D140213209F063C64A3092
:10E8C000510508F05FC60894811C911C53E0851621
:10E8D000910409F059C600E010E018C081E280936D
:10E8E000C6008091C00086FFFCCF8091C00080648C
:10E8F0008093C0002F5F3F4F2931310579F70F9486
:10E90000DCF10F5F1F4F0530110519F020E030E0FA
:10E91000E5CF10920A0210920B0210920C02109294
:10E920000D02109206021092070210920802109235
:10E930000902109202021092030210920402109235
:10E9400005028FEE90EE60E00F94F5F180E191EE1C
:10E9500060E00F94C2F18091C00087FFFCCF9091DE
:10E96000C600903608F09F759032B8F09093C600BC
:10E970008091C00086FFFCCF8091C00080648093AE
:10E98000C000A0E2A093C6008091C00086FFFCCF2B
:10E990008091C00080648093C000983409F4D7C18E
:10E9A0009934B8F4923409F459C1933458F490333B
:10E9B00019F1903308F4E3C59F33A1F1903409F0C5
:10E9C000DEC5BDC0953409F470C1963409F0D7C5D1
:10E9D00098C1923509F42BC2933538F49C3409F46C
:10E9E000F5C1913509F0CBC518C2963509F445C279
:10E9F000993509F0C4C567C483E792EE62E00F94CD
:10EA0000F5F110920602109207021092080210927D
:10EA1000090210920A0210920B0210920C0210923C
:10EA20000D0213C18FE792EE62E00F94F5F18FEEC5
:10EA300090EE60E00F94F5F181E291EE60E00F94CA
:10EA4000C2F187EB91EE60E00F94F5F180E391EE77
:10EA500060E00F94C2F184EE90EE60E00F94F5F167
:10EA60008FE391EE60E00F94C2F186E090E061E008
:10EA700070E00F9434F20F94DCF18DE591EE60E0DC
:10EA80000F94C2F189EC91EE60E00F94F5F18EE401
:10EA900091EE60E00F94C2F183EC91EE60E00F9490
:10EAA000F5F18CE691EE60E00F94C2F18EE10F94E7
:10EAB0000DF288E90F940DF281E00F940DF20F949E
:10EAC000DCF18BE791EE60E00F94C2F119E0E0E039
:10EAD000F0E010935700E4918E2F0F940DF20F94F5
:10EAE000DCF18AE891EE60E00F94C2F1E3E0F0E03F
:10EAF00010935700E4918E2F0F940DF20F94DCF1D8
:10EB000089E991EE60E00F94C2F1E2E0F0E0109349
:10EB10005700E4918E2F0F940DF20F94DCF188EAE8
:10EB200091EE60E00F94C2F1E1E0F0E01093570045
:10EB30001491812F0F940DF20F94DCF107CF8BE825
:10EB400092EE62E00F94F5F18BE492EE60E00F94A8
:10EB5000F5F10F94DCF100E010E019C0C8016F2D51
:10EB60000F947FFEFF2031F489E492EE60E00F9471
:10EB7000C2F10BC0F092C6008091C00086FFFCCFAE
:10EB80008091C00080648093C0000F5F1F4FC80158
:10EB900081519F41A0E0B0E0ABBFFC01F790BAE229
:10EBA000FB1621F0E2E000301E07C1F60F94DCF105
:10EBB0000F94DCF187E592EE60E00F94F5F10F948D
:10EBC000DCF1CC24DD2400E010E01EC0C8010F946D
:10EBD00077FEF82E882331F489E492EE60E00F94FA
:10EBE000C2F10BC08093C6008091C00086FFFCCFAD
:10EBF0008091C00080648093C000FE1419F00894D6
:10EC0000C11CD11C0F5F1F4FC80181519F41A0E063
:10EC1000B0E0ABBFFC01E790FAE2EF1621F022E092
:10EC20000030120799F60F94DCF10F94DCF182E6C4
:10EC300092EE60E00F94C2F1C60161E070E00F94C3
:10EC400034F20F94DCF10F94DCF110920202109276
:10EC50000302109204021092050278CE89E992EE26
:10EC600062E00F94F5F1279A2F9A16C02F9880E052
:10EC700090E0E0EDF7E03197F1F7019684369105E9
:10EC8000C1F72F9A80E090E0E0EDF7E03197F1F7DF
:10EC9000019684369105C1F78091C00087FFE6CFC9
:10ECA0008091C00087FFFCCF64C485EA92EE62E0E9
:10ECB0000F94F5F140910202509103026091040219
:10ECC0007091050281E020E10F9491F2809102029F
:10ECD00090910302A0910402B091050280509F4FD1
:10ECE000AF4FBF4F8093020290930302A0930402A0
:10ECF000B093050280509041A040B04008F426CE69
:10ED0000A4CF83EB92EE62E00F94F5F140910602FE
:10ED100050910702609108027091090280E020E1A1
:10ED20000F9491F28091060290910702A09108023F
:10ED3000B091090280509F4FAF4FBF4F80930602A2
:10ED400090930702A0930802B0930902FFCD80ECD4
:10ED500092EE62E00F94F5F183E792EE60E00F949B
:10ED6000F5F18FE792EE60E00F94F5F18BE892EE0B
:10ED700060E00F94F5F189E992EE60E00F94F5F10F
:10ED800085EA92EE60E00F94F5F183EB92EE60E09D
:10ED90000F94F5F180EC92EE60E00F94F5F187ECC2
:10EDA00092EE60E00F94F5F188ED92EE60E00F9442
:10EDB000F5F18FED92EE60E00F94F5F18AEE92EEB0
:10EDC00060E00F94F5F183E093EEBDCD87EC92EE19
:10EDD00062E00F94F5F181E40F947BF282E40F94EA
:10EDE0007BF283E40F947BF284E40F947BF285E45E
:10EDF0000F947BF286E40F947BF287E40F947BF20E
:10EE000088E40F947BF28AE40F947BF28BE40F94F6
:10EE10007BF28CE40F947BF299CD88ED92EE62E068
:10EE20000F94F5F1772473948824992409C48FED05
:10EE300092EE62E00F94F5F140910A0250910B02BC
:10EE400060910C0270910D0282E020E10F9491F22A
:10EE500080910A0290910B02A0910C02B0910D02D8
:10EE600080509F4FAF4FBF4F80930A0290930B0289
:10EE7000A0930C02B0930D0269CD8AEE92EE62E08F
:10EE80000F94F5F184EE90EE60E00F94F5F18FECC5
:10EE900091EE60E00F94F5F1662477244301CC5D98
:10EEA000DE4F19821882C452D140D401C301B695F5
:10EEB000A79597958795CA5DDE4F88839983AA8326
:10EEC000BB83C652D140CC5DDE4FA881B981C4520C
:10EED000D1401196CC5DDE4FB983A883C452D14096
:10EEE000CD0162E070E00F9434F2B0E2B093C6005E
:10EEF0008091C00086FFFCCF8091C0008064809329
:10EF0000C000EDE2E093C6008091C00086FFFCCF18
:10EF10008091C00080648093C000F0E2F093C6004E
:10EF20008091C00086FFFCCF8091C00080648093F8
:10EF3000C000CA5DDE4FE880F9800A811B81C6529D
:10EF4000D140BB27A12F902F8F2D0F940DF2CA5DBA
:10EF5000DE4F8881C652D1400F940DF2B0E2FB2EF5
:10EF6000F092C6008091C00086FFFCCF8091C00067
:10EF700080648093C0000DE30093C6008091C000C0
:10EF800086FFFCCF8091C00080648093C00010E2B7
:10EF90001093C6008091C00086FFFCCF8091C00016
:10EFA00080648093C0008BBEF3012791C65DDE4F65
:10EFB0002883CA52D140A22EBB24CC24DD2408943D
:10EFC000611C711C811C911C8BBEF3018791282E42
:10EFD0003324442455240894611C711C811C911C09
:10EFE0008BBEF3013791C55DDE4F3883CB52D140E4
:10EFF0000894611C711C811C911C8BBEF30147910C
:10F00000C45DDE4F4883CC52D140ADEFEA2EAFEF66
:10F01000FA2EAFEF0A2FAFEF1A2F6E0C7F1C801E57
:10F02000911E142D032DF22CEE24EA0CFB1C0C1D5A
:10F030001D1D0F940DF220E22093C6008091C000A8
:10F0400086FFFCCF8091C00080648093C000C65DC5
:10F05000DE4F8881CA52D1400F940DF230E23093D6
:10F06000C6008091C00086FFFCCF8091C000806404
:10F070008093C000C45DDE4F8881CC52D1400F9494
:10F080000DF240E24093C6008091C00086FFFCCFA5
:10F090008091C00080648093C000C55DDE4F888190
:10F0A000CB52D1400F940DF250E25093C6008091A4
:10F0B000C00086FFFCCF8091C00080648093C000B8
:10F0C0008FEFE8168FEFF80680E0080780E018075A
:10F0D00031F484E092EE60E00F94C2F1DFC0D80119
:10F0E000C7018070907CA070B0708050904CA040A0
:10F0F000B040D1F52FEF3FE340E050E0E222F322B1
:10F1000004231523CA5DDE4FA880B980CA80DB8046
:10F11000C652D140AE0CBF1CC01ED11EAA0CBB1CD7
:10F12000CC1CDD1C8EE092EE60E00F94C2F1BB2798
:10F13000A12F902F8F2D0F940DF28E2D0F940DF285
:10F1400030E23093C6008091C00086FFFCCF8091F2
:10F15000C00080648093C0004EE34093C60080915D
:10F16000C00086FFFCCF87C08EE09EEFA0E0B0E03D
:10F17000E822F9220A231B239CE0E91694E9F90608
:10F1800090E0090790E0190709F088C0C45DDE4FE0
:10F19000A881CC52D140EA2EFF2400E010E0102FCD
:10F1A0000F2DFE2CEE24C55DDE4FB881CB52D14031
:10F1B000EB0EF11C011D111DD601C501817090706F
:10F1C000A070B070DC0199278827E80EF91E0A1F8D
:10F1D0001B1F20EF30E040E050E0A222B322C42207
:10F1E000D52241E1AA0CBB1CCC1CDD1C4A95D1F7F1
:10F1F000EA0CFB1C0C1D1D1D81E090E0A0E0B0E0BE
:10F20000282239224A225B2235E1220C331C441C7D
:10F21000551C3A95D1F7E20CF31C041D151D57013E
:10F220006801AA0CBB1CCC1CDD1C85E192EE60E0E1
:10F230000F94C2F1C801AA27BB270F940DF2BB2778
:10F24000A12F902F8F2D0F940DF28E2D0F940DF274
:10F2500090E29093C6008091C00086FFFCCF809121
:10F26000C00080648093C000AEE3A093C60080918C
:10F27000C00086FFFCCF8091C00080648093C000F6
:10F28000C601AA27BB270F940DF2BB27AD2D9C2DDD
:10F290008B2D0F940DF28A2D0F940DF20F94DCF14B
:10F2A000CC5DDE4FE881F981C452D140F99709F471
:10F2B0004DCBF4E0EF2EF12C012D112D6E0C7F1CA7
:10F2C000801E911EF2CD83E093EE62E00F94F5F183
:10F2D0008AE192EE60E00F94C2F18091C00087FF56
:10F2E000FCCF1091C6001F751093C6008091C0001E
:10F2F00086FFFCCF8091C00080648093C0000F9493
:10F30000DCF1812F81548A3108F036C1163409F4BA
:10F3100095C0173490F4133409F44EC0143430F40B
:10F320001134F1F0123409F01DC130C0143409F465
:10F3300059C0153409F016C16BC01A3409F4C4C0A1
:10F340001B3438F4173409F48FC0183409F00AC19B
:10F35000A1C01B3409F4D2C01C3409F003C1E8C0B9
:10F360008FEF81B90DC082B1809582B980E090E0C5
:10F37000E0EDF7E03197F1F70196883C9105C1F790
:10F380008091C00087FFEFCF12B8EFC08FEF84B934
:10F390000DC085B1809585B980E090E0E0EDF7E0A3
:10F3A0003197F1F70196883C9105C1F78091C00033
:10F3B00087FFEFCF15B8D9C08FEF87B90DC088B1DF
:10F3C000809588B980E090E0E0EDF7E03197F1F7C3
:10F3D0000196883C9105C1F78091C00087FFEFCF6F
:10F3E00018B8C3C08FEF8AB90DC08BB180958BB9A7
:10F3F00080E090E0E0EDF7E03197F1F70196883C8E
:10F400009105C1F78091C00087FFEFCF1BB8ADC059
:10F410008FEF8DB90DC08EB180958EB980E090E0F0
:10F42000E0EDF7E03197F1F70196883C9105C1F7DF
:10F430008091C00087FFEFCF1EB897C08FEF80BBD1
:10F440000DC081B3809581BB80E090E0E0EDF7E0F6
:10F450003197F1F70196883C9105C1F78091C00082
:10F4600087FFEFCF11BA81C08FEF83BB0DC084B38C
:10F47000809584BB80E090E0E0EDF7E03197F1F714
:10F480000196883C9105C1F78091C00087FFEFCFBE
:10F4900014BA6BC08FEF809301010FC080910201FD
:10F4A00080958093020180E090E0E0EDF7E03197F5
:10F4B000F1F70196883C9105C1F78091C00087FF64
:10F4C000EDCF1092020151C08FEF809304010FC065
:10F4D0008091050180958093050180E090E0E0ED4A
:10F4E000F7E03197F1F70196883C9105C1F78091DB
:10F4F000C00087FFEDCF1092050137C08FEF8093DA
:10F5000007010FC08091080180958093080180E079
:10F5100090E0E0EDF7E03197F1F70196883C910536
:10F52000C1F78091C00087FFEDCF109208011DC088
:10F530008FEF80930A010FC080910B01809580931B
:10F540000B0180E090E0E0EDF7E03197F1F70196F4
:10F55000883C9105C1F78091C00087FFEDCF1092E4
:10F560000B0103C085E292EEEEC98091C00087FFD7
:10F57000FCCF8091C600EAC988E392EEE4C98CE131
:10F5800091EEE1C988249924933011F1943028F444
:10F59000913089F09230B8F408C0953061F195301F
:10F5A000F0F0963009F048C043C02B3109F042C951
:10F5B00091E06BE13FC96227C15DDE4F2883CF52E6
:10F5C000D14092E037C9B22FA0E0622793E032C960
:10F5D000822F90E0A82BB92B622794E02BC92E3004
:10F5E00009F039C3622795E0C05DDE4F19821882A9
:10F5F000C053D1401FC9E1E0F0E0EC0FFD1FC05D3A
:10F60000DE4F08811981C053D140E00FF11F2083E4
:10F610000F5F1F4FC05DDE4F19830883C053D14079
:10F6200062270A171B0709F005C9D80196E002C92D
:10F63000261709F010C303C0973009F0FBC87724E0
:10F640009981933109F412C19431C8F4963009F4C8
:10F65000D8C0973050F4923009F406C1933009F4C1
:10F660006DC0913009F059C253C0913109F477C08F
:10F67000923108F0BBC0903109F04FC2F5C098310B
:10F6800009F487C0993150F4953109F4EFC09531F0
:10F6900008F4C6C1963109F040C2C2C19A3109F4DA
:10F6A0006CC09A3108F491C09B3109F45BC09D3164
:10F6B00009F033C29D81903359F48F81882311F46E
:10F6C0009EE11CC0813011F091E018C098E916C08D
:10F6D000892F807591F0903539F4E0E0F0E089E011
:10F6E0008093570094910AC0983539F4E3E0F0E034
:10F6F00089E080935700949101C090E01A821B82A8
:10F700008D818C831D829E831F8227E030E009C299
:10F710001A8288E08B8381E48C8386E58D8382E581
:10F720008E8389E48F8383E5888780E589878FE5E9
:10F730008A8782E38B872BE030E0F3C18A818139AD
:10F7400041F0823941F0803911F48FE005C080E04A
:10F7500003C082E001C08AE01A828B8344C0772410
:10F76000739482C08D81882311F48EE12CC0813086
:10F7700011F081E028C088E926C01A82E1E0F0E0BB
:10F7800089E08093570084918B831C8224E030E0D1
:10F79000C8C18B81803589F48C81883039F4E2E0EE
:10F7A000F0E089E08093570084910DC0E0E0F0E044
:10F7B00089E080935700849106C0E3E0F0E089E09F
:10F7C0008093570084911A82DFCF8D81836C99E0FA
:10F7D000E1E0F0E0082E90935700E89507B600FCB2
:10F7E000FDCF1A821B8223E030E09BC180EC8A832C
:10F7F000CE5CDE4F188219821A821B82C253D1401E
:10F800008EC18A8190E0A0E0B0E0582F44273327D2
:10F8100022278B8190E0A0E0B0E0DC0199278827C7
:10F82000282B392B4A2B5B2B8D8190E0A0E0B0E098
:10F83000282B392B4A2B5B2B8C8190E0A0E0B0E089
:10F84000BA2FA92F982F8827282B392B4A2B5B2BCF
:10F85000220F331F441F551FC05EDE4F288339839C
:10F860004A835B83C052D1401A8259C13A81C95C34
:10F87000DE4F3883C753D140CA5CDE4F1882C6536F
:10F88000D1408B81C82EDD24CA5CDE4F488159816E
:10F89000C653D140C42AD52A933109F082C0CE5C28
:10F8A000DE4F88819981AA81BB81C253D1408050AB
:10F8B000904CA340B04030F583E0CE5CDE4FE88052
:10F8C000F9800A811B81C253D140F70100935B008C
:10F8D00080935700E89507B600FCFDCFCE5CDE4F65
:10F8E000088119812A813B81C253D14000501F4FAA
:10F8F0002F4F3F4FCE5CDE4F088319832A833B8313
:10F90000C253D140C05EDE4F488159816A817B81FC
:10F91000C052D140DE011B9631E08C9111962C91A2
:10F9200011971296C75CDE4F2883C953D140C85C3B
:10F93000DE4F1882C853D14090E0C85CDE4FE881AA
:10F94000F981C853D1408E2B9F2B0C01FA01609393
:10F950005B0030935700E89511244E5F5F4F6F4F67
:10F960007F4F0EEFE02E0FEFF02ECE0CDF1CC114F8
:10F97000D10499F685E0C05EDE4F088119812A81A5
:10F980003B81C052D140F80120935B008093570027
:10F99000E89507B600FCFDCF81E180935700E8951C
:10F9A00035C0C05EDE4F88819981AA81BB81C0527B
:10F9B000D140B695A795979587957C018601ABE0D8
:10F9C000AA2EB12CAC0EBD1E0BC0D5016D915D01F0
:10F9D000C7010F947FFE0894E11CF11C01501040F8
:10F9E0000115110591F7A60160E070E0440F551F65
:10F9F000661F771FC05EDE4FE880F9800A811B8199
:10FA0000C052D1404E0D5F1D601F711F1A82C05E33
:10FA1000DE4F488359836A837B83C052D1407FC0C5
:10FA2000FA80C55CDE4FF882CB53D140C65CDE4F16
:10FA30001882CA53D1408B81C82EDD24C65CDE4FAC
:10FA400008811981CA53D140C02AD12A1A828981DA
:10FA5000BE016D5F7F4F843121F59601C05EDE4FA0
:10FA6000E880F9800A811B81C052D1400BBFF701A9
:10FA700087919691DB018C9311969C936E5F7F4FDB
:10FA8000D801C7010296A11DB11DC05EDE4F88835B
:10FA90009983AA83BB83C052D14022503040F1F6F3
:10FAA00036C0C05EDE4F288139814A815B81C052F9
:10FAB000D1400894C108D108760100E010E0089414
:10FAC000C11CD11C0894E11CF11C011D111DE20E8A
:10FAD000F31E041F151F21BDBB27A52F942F832FB5
:10FAE00082BD2F5F3F4F4F4F5F4FF89A80B5DB01CC
:10FAF0008D93BD012E153F054007510761F7C05E8C
:10FB0000DE4F288339834A835B83C052D1409601FC
:10FB10002D5F3F4FFB01108204C080EC8A8322E0FE
:10FB200030E08BE18093C6008091C00086FFFCCF5F
:10FB30008091C00080648093C000C15DDE4FF88179
:10FB4000CF52D140F093C6008091C00086FFFCCF19
:10FB50008091C00080648093C000432F3093C60022
:10FB60008091C00086FFFCCF8091C00080648093AC
:10FB7000C000922F2093C6008091C00086FFFCCF6A
:10FB80008091C00080648093C0008EE08093C600A6
:10FB90008091C00086FFFCCF8091C000806480937C
:10FBA000C00065E1C15DDE4FE880CF52D1406E25D7
:10FBB00069276427FE01319610C090819093C6009A
:10FBC0008091C00086FFFCCF31968091C000806498
:10FBD0008093C0006927215030402115310569F715
:10FBE0006093C6008091C00086FFFCCF8091C0006A
:10FBF00080648093C00085B1805885B9772081F4F6
:10FC0000C15DDE4F0881CF52D1400F5FC15DDE4F35
:10FC10000883CF52D14090E0A0E0B0E00D941AF4F8
:10FC200027982F9880E090E020ED37E0F901319798
:10FC3000F1F7019684369105C9F700008091C00064
:10FC40008D7F8093C00081E180935700E895EE2777
:10FC5000FF270994FFCF90E00D941AF497FB092E2B
:10FC600007260AD077FD04D02ED006D000201AF443
:10FC7000709561957F4F0895F6F7909581959F4F08
:10FC80000895A1E21A2EAA1BBB1BFD010DC0AA1FDD
:10FC9000BB1FEE1FFF1FA217B307E407F50720F0F5
:10FCA000A21BB30BE40BF50B661F771F881F991F70
:10FCB0001A9469F760957095809590959B01AC01B9
:10FCC000BD01CF010895AA1BBB1B51E107C0AA1FAC
:10FCD000BB1FA617B70710F0A61BB70B881F991FED
:10FCE0005A95A9F780959095BC01CD010895F99991
:10FCF000FECF92BD81BDF89A992780B50895262F31
:10FD0000F999FECF1FBA92BD81BD20BD0FB6F89400
:0EFD1000FA9AF99A0FBE01960895F894FFCF63
:00000001FF
