:100000000C9430010C9461010C9461010C94610119
:100010000C9461010C9461010C9461010C946101D8
:100020000C9461010C9461010C9461010C946101C8
:100030000C9461010C94A4070C9461010C9461016F
:100040000C9461010C94D8080C9461010C9461012A
:100050000C9461010C9461010C9461010C940408EE
:100060000C9461010C9461010C9461010C94610188
:100070000C9461010C9461010C9461010C94610178
:100080000C94AA080C9461010C9461010C94610118
:100090000C9461010C9461010C9461010C94610158
:1000A0000C9461010C9461010C947C080C94610126
:1000B0000C9461010C9461010C9461010C944E0844
:1000C0000C9461010C9461010C9461010C94610128
:1000D0000C9461010C9461010C9461010C94610118
:1000E0000C9461010C944F020C943C020C94C20CD1
:1000F0000C9457020C94D7050C94D6050C94650209
:100100000C942A020C9461020C9434020C9449025F
:100110000C9438020C943F020C9430020C9445026B
:100120000C9453020C946F020C946B020C94EE0628
:100130000C94DF010C946A020C945D020000210013
:10014000240027002A002D003000330001010000A8
:10015000040107010A0100000A0B02090C0D0E0838
:100160000703040100000000000000000000000080
:10017000000000000000000000000000000000007F
:10018000000012111000000000000000000000003C
:10019000000000000000000000000000000020003F
:1001A0002300260029002C002F003200000100004F
:1001B0000301060109010102102020080810204057
:1001C000102040800201020108040201010204081B
:1001D00010204080804020100804020180040201A9
:1001E00080402010080402010804020101020408F2
:1001F00010204080010204081020408000002200EE
:10020000250028002B002E003100340002010000E0
:10021000050108010B010505050507050808080883
:10022000020202020A0A080804040404010101018E
:100230000101010103030303030303030407070789
:100240000C0C0C0C0C0C0C0C02020202060606062E
:10025000060606060B0B0B0B0B0B0B0B0200C20C5E
:1002600011241FBECFEFD1E2DEBFCDBF00E00CBF37
:1002700012E0A0E0B2E0EAECFDE100E00BBF02C05A
:1002800007900D92A83CB107D9F723E0A8ECB2E0A3
:1002900001C01D92A53CB207E1F711E0C0E3D1E037
:1002A00000E006C021970109802FFE010E94DB0EAD
:1002B000CF32D10780E00807A9F70E944B090C94C0
:1002C000E30E0C940000CF92DF92EF92FF92DC01DC
:1002D000A03282E0B807D4F5A53BB10514F0A4EB39
:1002E000B0E040918B0328E830E0241B310947FD42
:1002F0003395220F331F220F331F6901330FEE088E
:10030000FF0840918C0328E532E0241B310947FDAA
:100310003395220F331F220F331F032E000C440B83
:10032000550B2C193D094E095F09B7FF02C0B0E01B
:10033000A0E00E94650D24EB30E040E050E00E9418
:100340003B0DC20ED31EE41EF51ED601E0918A03BA
:10035000E03380F520918B0388E890E0821B9109BF
:1003600027FD9395880F991F880F991FA817B90724
:1003700084F020918C0388E592E0821B910927FD8F
:100380009395880F991F880F991FA817B9070CF428
:10039000CD010297880F991F4FB7F8942E2F30E0A8
:1003A000F901EE0FFF1FE20FF31FE650FD4F92839E
:1003B00081834FBFFF90EF90DF90CF900895AF9271
:1003C000BF92CF92DF92EF92FF920F931F93CF9342
:1003D000DF936C017B018B01040F151FEB015E01A4
:1003E000AE18BF08C017D10759F06991D601ED9139
:1003F000FC910190F081E02DC6011995892B79F7C8
:10040000C501DF91CF911F910F91FF90EF90DF9089
:10041000CF90BF90AF9008958150823108F05AC0BC
:10042000E82FF0E08827E85EFD4F8F4F0C94DB0E3D
:1004300038023C022A02300234026A023F024502BC
:1004400049024F02530257025D0261026A026502CD
:100450006B026F02809180008F77809380000895F7
:10046000809180008F7DF9CF80918000877FF5CFCC
:1004700084B58F7784BD089584B58F7DFBCF80913F
:10048000B0008F778093B00008958091B0008F7D89
:10049000F9CF809190008F7780939000089580919C
:1004A00090008F7DF9CF80919000877FF5CF80916C
:1004B000A0008F778093A00008958091A0008F7D89
:1004C000F9CF8091A000877FF5CF809120018F77B1
:1004D000809320010895809120018F7DF9CF809134
:1004E0002001877FF5CF1F93CF93DF93282F30E034
:1004F000F901EA5AFE4F8491F901EA54FE4FD49172
:10050000F901EA5EFD4FC491CC23A9F0162F8111A9
:100510000E940C02EC2FF0E0EE0FFF1FE450FE4FA4
:10052000A591B4918FB7F894EC91111108C0D095B2
:10053000DE23DC938FBFDF91CF911F910895DE2BD7
:10054000F8CF9091000289130DC0ECE5F2E0E49140
:100550009FEF90930002E230E1F038F4EE2381F057
:10056000E13089F060E00C947302E43049F110F15D
:10057000E530C1F7909173009D7F90937300F2CFA7
:1005800010926E00EFCF90916F009D7F90936F005F
:10059000E9CF909170009D7F9093700091E09093CF
:1005A000B0009091B100987F94609093B100109248
:1005B000B300D8CF909171009D7F90937100D2CFFE
:1005C000909172009D7F90937200CCCFCF93DF9378
:1005D00090E0FC01EA54FE4F24918A5E9D4FFC019D
:1005E00084918823D1F090E0880F991FFC01E45C8E
:1005F000FE4FA591B491FC01E450FE4FC591D491FA
:1006000061110EC09FB7F8948C91E22FE0958E2374
:100610008C932881E223E8839FBFDF91CF910895D7
:100620008FB7F894EC91E22BEC938FBFF6CFCF937A
:1006300080910002883121F08F3F59F1CF910895C8
:10064000ECE5F2E0C491C7FDF9CF61E088E10E94DA
:10065000E602CC2309F4F0C0C23009F004C1809155
:10066000B100887F83608093B10089EF8093B300ED
:100670008FEF9FEFDC018093B9039093BA03A093AF
:10068000BB03B093BC0380917000826080937000C4
:10069000D5CF88E180930002ECE5F2E0C4918C2F85
:1006A000CF3F61F2C23009F468C060F4CC2379F125
:1006B000C13009F444C087FDC1CF61E088E10E94E8
:1006C000E602CACFC43009F499C008F478C0C53036
:1006D00091F71092200110922101809121018860F0
:1006E0008093210180912101816080932101EEE2BC
:1006F000F2E0E491F0E0EE0FFF1FE450FE4F859131
:100700009491EEECF1E0E491E093A5039ECF14BC4C
:1007100015BC84B5826084BD85B5816085BDEEE27F
:10072000F2E0E491F0E0EE0FFF1FE450FE4F859100
:100730009491EEECF1E0E491E093AC0386CF10925B
:1007400080001092810080918100886080938100F8
:1007500080918100816080938100EEE2F2E0E4917B
:10076000F0E0EE0FFF1FE450FE4F85919491EEEC08
:10077000F1E0E491E093AB0368CF1092B0001092E7
:10078000B1008091B00082608093B0008091B10090
:1007900081608093B100EEE2F2E0E491F0E0EE0FD0
:1007A000FF1FE450FE4F859194919093AA0380938C
:1007B000A903EEECF1E0E491E093A80346CF109298
:1007C0009000109291008091910088608093910038
:1007D00080919100816080939100EEE2F2E0E491DB
:1007E000F0E0EE0FFF1FE450FE4F85919491EEEC88
:1007F000F1E0E491E093A703C3E027CF1092A000BB
:100800001092A1008091A10088608093A100809146
:10081000A10081608093A100EEE2F2E0E491F0E0BB
:10082000EE0FFF1FE450FE4F85919491EEECF1E046
:10083000E491E093A60309CF85B5887F836085BDE9
:100840008CE787BD8FEF9FEFDC018093C10390930E
:10085000C203A093C303B093C40380916E0082606F
:1008600080936E00EBCEC130E9F480918100887FE7
:100870008160809381008FE39FE190938900809352
:1008800088008FEF9FEFDC018093BD039093BE0340
:10089000A093BF03B093C00380916F0082608093E8
:1008A0006F00CCCEC330E9F480919100887F8160E5
:1008B000809391008FE39FE190939900809398003B
:1008C0008FEF9FEFDC018093B5039093B603A09365
:1008D000B703B093B8038091710082608093710078
:1008E000ADCEC430E9F48091A100887F816080930F
:1008F000A1008FE39FE19093A9008093A8008FEF60
:100900009FEFDC018093B1039093B203A093B303F4
:10091000B093B403809172008260809372008ECE97
:10092000C530E9F480912101887F816080932101A5
:100930008FE39FE190932901809328018FEF9FEF30
:10094000DC018093AD039093AE03A093AF03B0930B
:10095000B003809173008260809373006FCEC230C9
:1009600091F034F4CC2369F0C13009F067CE83CF25
:10097000C43009F4BECF0CF49DCFC53009F05ECE73
:10098000D7CF8FE35ECF8FE371CE3FB7F8948091DE
:10099000D2029091D302A091D402B091D50226B593
:1009A000A89B05C02F3F19F00196A11DB11D3FBFA7
:1009B000BA2FA92F982F8827BC01CD01620F711D76
:1009C000811D911D42E0660F771F881F991F4A9570
:1009D000D1F708958F929F92AF92BF92CF92DF92FC
:1009E000EF92FF924B015C010E94C5046B017C01F8
:1009F0000E94C5046C197D098E099F09683E7340E9
:100A000081059105A8F321E0821A9108A108B10897
:100A100088EEC80E83E0D81EE11CF11C81149104FD
:100A2000A104B10429F7FF90EF90DF90CF90BF9021
:100A3000AF909F908F900895AF92BF92CF92DF9228
:100A4000EF92FF920F931F93CF93DF936B017A0185
:100A5000EC01C753DD4F28813CE0389F8001399F6E
:100A6000100D1124A090C802B12C27FF1FC0FB015C
:100A70001182108288818F5F888388819801280F76
:100A8000311D87FD3A95F6012A153B051CF4888136
:100A90008C30C4F180819181049680349C4908F4A3
:100AA00073C0F60180819181049670C0888198019D
:100AB000280F311D87FD3A952A153B05DCF6888104
:100AC000A801480F511D87FD5A95FA01EE0FFF1F2F
:100AD000E40FF51FE650FD4F808186FFCBCF888164
:100AE000F801E80FF11D87FDFA95CF01EE0FFF1F0A
:100AF000E80FF91FE650FD4F808160E08F730E9480
:100B00007302B8CF808191812881A801420F511DC5
:100B100027FD5A959A01FA01EE0FFF1FE20FF31F0E
:100B2000E650FD4F21813281820F931FF70191839F
:100B3000808388819801280F311D87FD3A95F9013E
:100B4000EE0FFF1FE20FF31FE650FD4F808186FF7F
:100B500022C08881080F111D87FD1A95F801EE0F3C
:100B6000FF1FE00FF11FE650FD4F808161E08F73A2
:100B7000DF91CF911F910F91FF90EF90DF90CF9079
:100B8000BF90AF900C94730280E49CE9F7019183CD
:100B900080838FEF8883DF91CF911F910F91FF901A
:100BA000EF90DF90CF90BF90AF900895089590E0C0
:100BB00080E008958F929F92AF92BF920F931F9300
:100BC000CF93DF93CDB7DEB7A1970FB6F894DEBF12
:100BD0000FBECDBF19A2423008F44AE08E010F5D6E
:100BE0001F4F842E912CB12CA12CA50194010E94A1
:100BF0006D0DE62FB901CA01EA3044F5E05DD80178
:100C0000EE938D01232B242B252B79F790E080E0A8
:100C1000109769F0FD0101900020E9F73197AF01CD
:100C20004A1B5B0BBD018DE893E00E94DF01A1969A
:100C30000FB6F894DEBF0FBECDBFDF91CF911F91ED
:100C40000F91BF90AF909F908F900895E95CD7CFA0
:100C5000FB0101900020E9F73197AF01461B570BCC
:100C60000C94DF010F931F9390E0FC01EA54FE4FB8
:100C70006491FC01EA5EFD4FE491F0E0EE0FFF1F8E
:100C8000E456FE4F8591949100E412E42FE030E0A9
:100C9000462F0E940609611571058105910529F00D
:100CA0006F5F7F4F8F4F9F4F9F701F910F910895E0
:100CB000CF93DF93EC0160E08E810E94730261E0CC
:100CC0008E810E94730260E08E810E9473028BE825
:100CD00091E00197F1F7DF91CF910895CF92DF92E4
:100CE000EF92FF920F931F93CF93DF936C017C01E0
:100CF00087E0E80EF11CD0E0C0E0062F10E0B8015C
:100D00000C2E02C0759567950A94E2F76170F701A1
:100D100081917F010E9473022196C430D10579F739
:100D2000C601DF91CF911F910F91FF90EF90DF905F
:100D3000CF900C945806CF92DF92EF92FF920F93D0
:100D40001F93CF93DF93EC01F62E642F8C810E94CA
:100D500073028D818F3F19F060E00E9473020F2DA6
:100D600010E08F8584FF25C06E0187E0C80ED11C7E
:100D7000F12CE12CB8010E2C02C0759567950A94F0
:100D8000E2F76170F60181916F010E947302FFEF3B
:100D9000EF1AFF0A88E0E816F10461F7CE01DF914F
:100DA000CF911F910F91FF90EF90DF90CF900C9417
:100DB0005806B80184E0759567958A95E1F7CE01EC
:100DC0000E946E066F2DCE01DF91CF911F910F9182
:100DD000FF90EF90DF90CF900C946E0641E00E9460
:100DE0009B0681E090E0089540E00C949B06FC0196
:100DF0002389421710F04FEF420FFC01E40FF11D61
:100E00002489620F60680C94F40661E00E94F40685
:100E10008BE39FE10197F1F708950F931F93CF9311
:100E2000DF93EC01623019F48F8588608F876B8BBC
:100E30001C8A80E48D8B80E18E8B80E58F8B61E056
:100E40008C810E94E6028D818F3F19F061E00E9443
:100E5000E60261E08E810E94E6028E0198012C1B61
:100E60003D0B8F8584FD0DC084E090E00F5F1F4F28
:100E7000281739074CF461E0F80186810E94E602E8
:100E8000EDCF88E090E0F2CF8BE39DE00197F1F7A2
:100E900060E08C810E94730260E08E810E94730288
:100EA0008D818F3F19F060E00E9473026F8564FDB1
:100EB00034C063E0CE010E946E060BE416E4C80164
:100EC0000197F1F763E0CE010E946E06C801019719
:100ED000F1F763E0CE010E946E0683E592E0019790
:100EE000F1F762E0CE010E946E066F856062CE016E
:100EF0000E94F40684E0888B6CE0CE010E94F40628
:100F0000CE010E94050782E0898B66E0CE01DF9169
:100F1000CF911F910F910C94F4066062CE010E9454
:100F2000F4068BE496E40197F1F76F856062CE01D9
:100F30000E94F40683E592E00197F1F76F85606205
:100F4000CE010E94F406D1CF1F920F920FB60F92DE
:100F500011240BB60F922F933F934F935F936F9390
:100F60007F938F939F93AF93BF93EF93FF93809162
:100F7000B9039091BA03A091BB03B091BC03892B34
:100F80008A2B8B2BE1F19091A803E091A903F091BA
:100F9000AA038081892780838091B9039091BA0345
:100FA000A091BB03B091BC03181619061A061B06C4
:100FB0009CF48091B9039091BA03A091BB03B091C6
:100FC000BC030197A109B1098093B9039093BA03B7
:100FD000A093BB03B093BC03FF91EF91BF91AF917E
:100FE0009F918F917F916F915F914F913F912F9141
:100FF0000F900BBE0F900FBE0F901F901895809111
:1010000000020E94A102E8CF1F920F920FB60F922A
:1010100011242F933F938F939F93AF93BF9380910E
:10102000CE029091CF02A091D002B091D102309126
:10103000CD0223E0230F2D3758F50196A11DB11DD8
:101040002093CD028093CE029093CF02A093D00242
:10105000B093D1028091D2029091D302A091D40298
:10106000B091D5020196A11DB11D8093D20290933B
:10107000D302A093D402B093D502BF91AF919F91B8
:101080008F913F912F910F900FBE0F901F90189549
:1010900026E8230F0296A11DB11DD2CF1F920F92F9
:1010A0000FB60F9211240BB60F922F933F934F93CD
:1010B0005F936F937F938F939F93AF93BF93EF93C0
:1010C000FF9348E251E064E271E090E080E00E942A
:1010D0001C05FF91EF91BF91AF919F918F917F91EF
:1010E0006F915F914F913F912F910F900BBE0F9099
:1010F0000FBE0F901F9018951F920F920FB60F9270
:1011000011240BB60F922F933F934F935F936F93DE
:101110007F938F939F93AF93BF93EF93FF9348EA8F
:1011200050E064EA70E083E090E00E941C05FF91CB
:10113000EF91BF91AF919F918F917F916F915F914F
:101140004F913F912F910F900BBE0F900FBE0F90BC
:101150001F9018951F920F920FB60F9211240BB685
:101160000F922F933F934F935F936F937F938F9340
:101170009F93AF93BF93EF93FF9348E950E064E9E7
:1011800070E082E090E00E941C05FF91EF91BF911A
:10119000AF919F918F917F916F915F914F913F910F
:1011A0002F910F900BBE0F900FBE0F901F901895B0
:1011B0001F920F920FB60F9211240BB60F922F931E
:1011C0003F934F935F936F937F938F939F93AF93CF
:1011D000BF93EF93FF9348E850E064E870E081E04C
:1011E00090E00E941C05FF91EF91BF91AF919F91FC
:1011F0008F917F916F915F914F913F912F910F90C0
:101200000BBE0F900FBE0F901F901895CF92DF92DC
:10121000EF92FF920F931F93E82FF92F05C0015013
:1012200011092109310961F1908196239417B9F3CD
:1012300005C0015011092109310911F1908196234E
:101240009413F7CFC12CD12CE12CF12C0AC08FEFD5
:10125000C81AD80AE80AF80A0C151D052E053F051C
:1012600079F080818623841791F36C2D7D2D8E2D4E
:101270009F2D1F910F91FF90EF90DF90CF900895D9
:1012800060E070E080E090E01F910F91FF90EF90A0
:10129000DF90CF900895789484B5826084BD84B542
:1012A000816084BD85B5826085BD85B5816085BD61
:1012B00080916E00816080936E0010928100809119
:1012C00081008260809381008091810081608093A1
:1012D0008100809180008160809380008091B100C6
:1012E00084608093B1008091B00081608093B000F1
:1012F0008091910082608093910080919100816043
:101300008093910080919000816080939000809103
:10131000A10082608093A1008091A10081608093F0
:10132000A1008091A00081608093A00080912101A4
:10133000826080932101809121018160809321014D
:101340008091200181608093200180917A008460E7
:1013500080937A0080917A00826080937A008091F5
:101360007A00816080937A0080917A00806880930F
:101370007A001092C10062E08CED92E00E940D07AD
:1013800040E060E08CED92E00E94F7066DE072E0D4
:101390008CED92E00E94280641E060E08CED92E046
:1013A0000E94F7066DE172E08CED92E00E94280643
:1013B00062E08DE893E00E940D0740E060E08DE878
:1013C00093E00E94F7066EE272E08DE893E00E94DF
:1013D000280641E060E08DE893E00E94F70664E4AF
:1013E00072E08DE893E00E94280680918A038033A2
:1013F00008F052C061E084E00E94E60280918A0316
:10140000282F30E0F901EE0FFF1FE20FF31FE65027
:10141000FD4F9081907C9460908310928B0310928A
:101420008C032CE0622F0E94CF0E829FB00111240A
:1014300030E020E0AB01420F531FFA01EE0FFF1F17
:10144000E40FF51FE650FD4F908196FD17C02F5F0A
:101450003F4F2C30310571F7813009F094C1109263
:10146000800082E0809381001092850010928400B9
:10147000B19A80916F00826080936F00E0918A033F
:101480008E2F90E0FC01EE0FFF1FE80FF91FE650D2
:10149000FD4F80818064808361E087E00E94E602E6
:1014A00060E086E00E94E60261E086E10E94E602DA
:1014B00060E087E10E94E60260E083E00E94E602CD
:1014C00061E085E00E94E60261E082E00E94E602BF
:1014D00061E083E30E94E60261E084E30E94E602A9
:1014E00061E085E30E94E60261E088E10E94E60295
:1014F000CFE0D0E003E210E022E0422E512C612C3C
:10150000712C3AE5232E312C90E0892E90E0992E13
:1015100060E087E00E947302CE010197F1F761E07D
:1015200087E00E947302C8010197F1F760E087E04D
:101530000E94730286E00E943206A30192010E947B
:101540003B0DCA01B9010E94D60D22E533EB47E0FD
:101550005DE30E943A0E0E949E0D7093F902609323
:10156000F802E9E5F1E08491E9EBF1E0F490E9E1DA
:10157000F2E0E490EE2009F432C181110E940C02E5
:10158000EE2DF0E0EE0FFF1FE456FE4FA591B49153
:101590008C91F82291E080E009F490E09093F602BB
:1015A0008093F70260E086E10E947302CE0101970A
:1015B000F1F761E086E10E947302C8010197F1F73B
:1015C00060E086E10E94730287E10E943206A30177
:1015D00092010E943B0DCA01B9010E94D60D22E57D
:1015E00033EB47E05DE30E943A0E0E949E0D6B01D3
:1015F0005B017093F5026093F4026F3171050CF496
:10160000FCC0CB014F978634910560F460E083E322
:101610000E94730260E084E30E94730261E085E34C
:101620000E94730285E6C81AD10894E6C916D1044F
:1016300060F460E083E30E94730261E084E30E944F
:10164000730261E085E30E947302E8ECAE16B10418
:1016500064F061E083E30E94730261E084E30E942E
:10166000730261E085E30E9473028091F802909119
:10167000F90202970D9708F0B5C08CED92E00E9438
:10168000050740E061E08CED92E00E94F70666E419
:1016900072E08CED92E00E94280641E060E08CED63
:1016A00092E00E94F70665E572E08CED92E00E9400
:1016B000280661E085E00E94730261E082E00E94FA
:1016C000730281E090E09093DB028093DA0268EE8F
:1016D00073E080E090E00E94EA048CED92E00E94CA
:1016E000050766E672E08CED92E00E94280688E12C
:1016F0000E94A1028091DA029091DB028130910573
:1017000009F01FC18091F6029091F702892B09F030
:1017100011C18CED92E00E94050740E061E08CED84
:1017200092E00E94F70669E872E08CED92E00E9478
:10173000280641E061E08CED92E00E94F70667E93F
:1017400072E08CED92E00E9428061092D90210926D
:10175000D802E090D802F090D9029BE5E916F10496
:101760000CF06EC0C7010E94630164E170E080E08C
:1017700090E00E94EA04EFEFEE1AFE0AF092D9021E
:10178000E092D802E6CF823061F41092900080930C
:101790009100109295001092940088BB8093710084
:1017A0006DCE833069F41092A00082E08093A10096
:1017B0001092A5001092A40089BB809372005ECEA7
:1017C00081115CCE1092200182E080932101109261
:1017D0002501109224018ABB809373004FCE90E0C4
:1017E00080E0DCCE60E085E00E94730260E082E091
:1017F0000E9473020E9417037DCF60E085E00E9483
:10180000730260E082E00E9473021092DB02109289
:10181000DA028CED92E00E94050760E083E30E940B
:10182000730260E084E30E94730260E085E30E943B
:10183000730267E772E08CED92E00E9428065ACFAF
:1018400060E177E280E090E00E94EA043092D90201
:101850002092D802E090D802F090D902F7FC11C093
:10186000C7010E94630164E170E080E090E00E94A3
:10187000EA04F1E0EF1AF108F092D902E092D802FE
:10188000E9CF8091D6029091D70201969093D7022A
:101890008093D6028DE893E00E94050740E061E066
:1018A0008DE893E00E94F70667EA72E08DE893E026
:1018B0000E94280641E061E08DE893E00E94F7066F
:1018C000C090D602D090D7020D2C000CEE08FF0875
:1018D0004AE0C701B601F7FE0EC041E06DE28DE8B7
:1018E00093E00E949B0666277727CB016C197D0940
:1018F0008E099F094AE00E94DA058CED92E00E9471
:1019000005076DE072E08CED92E00E94280641E050
:1019100060E08CED92E00E94F7066DE172E08CEDE4
:1019200092E00E9428061092DB021092DA0288E10F
:101930000E94A1028114910409F4EACD0E940000E2
:10194000E3CD892BB9F78091F6029091F702892BAC
:1019500089F78CED92E00E9405076DE072E08CED56
:1019600092E00E94280641E060E08CED92E00E9447
:10197000F70667EB72E08CED92E00E9428060E9469
:101980001703D8CF0F931F93CF931092DF021092BB
:10199000DE0205E012E01093DD020093DC028DE030
:1019A0008093E002CFEFC093E1028CE08093E202EB
:1019B0008BE08093E3028AE08093E40289E08093E5
:1019C000E50288E08093E6021092E7021092E802B6
:1019D0001092E9021092EA021092EB0261E08CEDA3
:1019E00092E00E940D071092900310928F031093C3
:1019F0008E0300938D038EE180939103C093920335
:101A00008DE1809393038CE1809394038BE1809329
:101A100095038AE18093960389E18093970310925E
:101A200098031092990310929A0310929B031092BC
:101A30009C0361E08DE893E00E940D078091C8024D
:101A40008033B0F491E0980F9093C80280938A039A
:101A500090E0FC01EE0FFF1FE80FF91FE650FD4F6D
:101A600088EB9BE092838183CF911F910F91089522
:101A7000C0938A03F9CF052E97FB1EF400940E94B1
:101A8000520D57FD07D00E946D0D07FC03D04EF498
:101A90000C94520D50954095309521953F4F4F4FE6
:101AA0005F4F089590958095709561957F4F8F4F0A
:101AB0009F4F08950E948F0DA59F900DB49F900D8C
:101AC000A49F800D911D11240895B7FF0C945A0D09
:101AD0000E945A0D821B930B0895A1E21A2EAA1B95
:101AE000BB1BFD010DC0AA1FBB1FEE1FFF1FA217CE
:101AF000B307E407F50720F0A21BB30BE40BF50BCB
:101B0000661F771F881F991F1A9469F76095709553
:101B1000809590959B01AC01BD01CF010895A29FD6
:101B2000B001B39FC001A39F700D811D1124911DB1
:101B3000B29F700D811D1124911D08950E94A50D65
:101B40006894B1110C94340E08950E94190E88F017
:101B50009F5798F0B92F9927B751B0F0E1F0660F71
:101B6000771F881F991F1AF0BA95C9F714C0B130B2
:101B700091F00E94330EB1E008950C94330E672F5C
:101B8000782F8827B85F39F0B93FCCF386957795E1
:101B90006795B395D9F73EF49095809570956195CA
:101BA0007F4F8F4F9F4F0895E89409C097FB3EF4F5
:101BB00090958095709561957F4F8F4F9F4F99239A
:101BC000A9F0F92F96E9BB279395F6958795779518
:101BD0006795B795F111F8CFFAF4BB0F11F460FFD8
:101BE0001BC06F5F7F4F8F4F9F4F16C0882311F030
:101BF00096E911C0772321F09EE8872F762F05C044
:101C0000662371F096E8862F70E060E02AF09A95DE
:101C1000660F771F881FDAF7880F9695879597F9D3
:101C2000089557FD9058440F551F59F05F3F71F0CC
:101C30004795880F97FB991F61F09F3F79F0879533
:101C40000895121613061406551FF2CF4695F1DFBC
:101C500008C0161617061806991FF1CF869571054C
:101C6000610508940895E894BB2766277727CB0180
:101C700097F908950E944D0E0C94BE0E0E94B00E6E
:101C800038F00E94B70E20F0952311F00C94A70EA7
:101C90000C94AD0E11240C94340E0E94110E70F3AE
:101CA000959FC1F3950F50E0551F629FF001729F01
:101CB000BB27F00DB11D639FAA27F00DB11DAA1F10
:101CC000649F6627B00DA11D661F829F2227B00D5D
:101CD000A11D621F739FB00DA11D621F839FA00DE8
:101CE000611D221F749F3327A00D611D231F849F38
:101CF000600D211D822F762F6A2F11249F5750408F
:101D00009AF0F1F088234AF0EE0FFF1FBB1F661F09
:101D1000771F881F91505040A9F79E3F510580F0D2
:101D20000C94A70E0C94340E5F3FE4F3983ED4F36A
:101D3000869577956795B795F795E7959F5FC1F776
:101D4000FE2B880F911D9695879597F9089597F921
:101D50009F6780E870E060E008959FEF80EC089551
:101D600000240A941616170618060906089500247A
:101D70000A9412161306140605060895092E0394F4
:101D8000000C11F4882352F0BB0F40F4BF2B11F468
:101D900060FF04C06F5F7F4F8F4F9F4F0895991B67
:101DA00079E004C0991F961708F0961B881F7A9552
:101DB000C9F780950895EE0FFF1F881F8BBF07900E
:0A1DC000F691E02D1994F894FFCF7E
:101DCA00FF00000000EE06DF01D705D60557617354
:101DDA006820796F75722068616E64730062656647
:101DEA006F726520796F7520656E746572004E6F2B
:101DFA002E206F662070656F706C6520656E746545
:101E0A0072656400300048616E64732064657465AD
:101E1A006374656400576173682068616E64732037
:101E2A002D2032307300596F7520617265207361FD
:101E3A006665206E6F770053616E6974697A6572A0
:101E4A002046696E7368656400596F75206D617903
:101E5A0020676F20696E003130207365636F6E648E
:101E6A0073206C656674004E6F2E206F6620706555
:101E7A006F706C65203A00746F206772616E74200F
:081E8A006163636573730000DE
:00000001FF
